:03000000020C6689
:0C0C6600787FE4F6D8FD75813F020CADEC
:1011070020202D20202D20200020203A20203A20AA
:10111700200020203A003A202000546F70004C6FC6
:0511270077002020000C
:10098A001212CB12138212129E1213697BFF7A1172
:10099A0079077D017F0112112C7BFF7A1179107D75
:1009AA00017F0212112C752917752A3B752B387B8A
:1009BA001A7D077F031213027D03E4FF12138712C5
:1009CA000A5A1213214005120E3550077F647E0021
:1009DA0012114FE50D70031208A0120DD48F16E5FF
:1009EA001664027045E50D700A750D01F50C1212B8
:1009FA001F8037E50DB4010B750D02E4F5171210CF
:100A0A00828027E50DB4021112132F12121F121041
:100A1A00B1750D03E4F50E8011E50DB4030C121245
:100A2A001F121239120A5AE4F50DE50D14600F145B
:100A3A00601214601524037089120D6B8084120BE6
:100A4A001C0209CC120BCE0209CC1205870209CC72
:03000B00020FA53C
:090FA500C0E0C0D075D000C00707
:100FAE00758A18758CFC0509E50970020508C3944D
:100FBE00F4E50894014012750800750900E50F70FC
:090FCE00047F0180027F008F0FF7
:070FD700D007D0D0D0E032BA
:100D6B00120CF2E510FB3395E0FA752A027D017F38
:100D7B00011211AFE511FB3395E0FA752A027D04E0
:100D8B007F011211AFE512FB3395E0FA752A027D54
:100D9B00077F011211AFE513FB3395E0FA752A02B9
:100DAB007D017F021211AFE514FB3395E0FA752A32
:100DBB00027D047F021211AFE515FB3395E0FA7546
:090DCB002A027D077F020211AF2C
:100B1C00E516B401050517531701E516B40326E5D0
:100B2C0017146007047006050A8002050BD3E50A4A
:100B3C00648094974003E4F50AD3E50B648094BB7E
:100B4C004003E4F50BE516B40426E517146007041E
:100B5C007006150A8002150BC3E50A648094805058
:100B6C0003750A17C3E50B648094805003750B3B27
:100B7C00E5177014E50FB4010F7BFF7A1179197D1D
:100B8C000C7F0212112C8011E50AFB3395E0FA75EB
:100B9C002A027D0C7F021211AFE517B40112E50F8A
:100BAC00B4010D7BFF7A11791D7D0E7F0202112C91
:100BBC00E50BFB3395E0FA752A027D0F7F021211CB
:020BCC00AF2256
:100BCE00E516B40105050E530E01E516B4030CE54A
:100BDE000E700512138C8003121392E516B4040CDA
:100BEE00E50E700512138F80031213957BFF7A1199
:100BFE0079217D0E7F0112112C7BFF7A1179257DD3
:100C0E000E7F0212112CE50E7014E50FB4010F7B4E
:100C1E00FF7A1179297D0C7F0112112C801112138C
:100C2E0098EFFB7A00752A027D0C7F011211AFE559
:100C3E000EB40112E50FB4010D7BFF7A1179297DF7
:100C4E000C7F0202112C12139BEFFB7A00752A0205
:080C5E007D0C7F021211AF2290
:10058700E516B4010B050CE50C75F0068485F00C37
:10059700E51664036003020686E50C146014146014
:1005A70015146016146017146018240570160510CA
:1005B70080120511800E0512800A051380060514A6
:1005C70080020515D3E510648094E34003E4F51039
:1005D700D3E5116480948C4003751101E511640122
:1005E7006023E5116403601DE51164056017E511DB
:1005F70064076011E5116408600BE511640A600582
:10060700E511B40C0BD3E5126480949F404D8048EC
:10061700E51164046011E5116406600BE5116409D6
:100627006005E511B40B0BD3E5126480949E402B53
:100637008026E511B40224E51075F0041203F5AF26
:10064700F0EF700BD3E5126480949D400E8009D3C0
:10065700E5126480949C4003751201D3E51364800E
:1006670094974003E4F513D3E514648094BB4003E7
:10067700E4F514D3E515648094BB4003E4F515E570
:1006870016640460030207A6E50C146014146015D1
:10069700146016146017146018240570161510805E
:1006A700121511800E1512800A1513800615148075
:1006B700021515C3E510648094805003751063C359
:1006C700E51164809481500375110CE51164016094
:1006D70023E5116403601DE51164056017E51164E6
:1006E700076011E5116408600BE511640A6005E510
:1006F70011B40C17C3E51264809481500375121F5F
:10070700D3E5126480949F4072806DE511640460A4
:1007170011E5116406600BE51164096005E511B484
:100727000B17C3E51264809481500375121ED3E53D
:10073700126480949E4044803FE5116402703CE55A
:100747001075F0041203F5AFF0EF7017C3E51264EC
:10075700809481500375121DD3E5126480949D40E7
:100767001A8015C3E51264809481500375121CD357
:10077700E5126480949C4003751201C3E5136480FD
:1007870094805003751317C3E51464809480500355
:1007970075143BC3E51564809480500375153BE5DC
:1007A7000C7014E50FB4010F7BFF7A1179297D01D5
:1007B7007F0112112C8011E510FB3395E0FA752AA1
:1007C700027D017F011211AFE50CB40114E50FB4EE
:1007D700010F7BFF7A1179297D047F0112112C808B
:1007E70011E511FB3395E0FA752A027D047F0112AA
:1007F70011AFE50CB40214E50FB4010F7BFF7A11BA
:1008070079297D077F0112112C8011E512FB3395A1
:10081700E0FA752A027D077F011211AFE50CB403D8
:1008270014E50FB4010F7BFF7A1179297D017F024F
:1008370012112C8011E513FB3395E0FA752A027D1E
:10084700017F021211AFE50CB40414E50FB4010FD8
:100857007BFF7A1179297D047F0212112C8011E523
:1008670014FB3395E0FA752A027D047F021211AF5B
:10087700E50CB40512E50FB4010D7BFF7A11792958
:100887007D077F0202112CE515FB3395E0FA752AE7
:09089700027D077F021211AF225D
:1012F10020202020202020202020202020202020ED
:0113010000EB
:06131200C2A58F80D2A7E6
:081318007F027EEFDEFEDFFC28
:0113200022AA
:0A135500C2A6121312C2A702131859
:10119100CFCDCFCECCCE1204567C007D0A120456A0
:0411A100ED2430FF0A
:0A11A500D2A6121312C2A7021318FB
:1012B500AE07BE0104ED148006BE0209ED243F44CD
:0612C50080FF1213552208
:1012CB007F381213557F0C1213557F061213557F5F
:0412DB0001021355A4
:0A135F00AC031212B5AF040211A591
:06112C008B268A278928AA
:101132001212B5E4FDAB26AA27A9288D8275830079
:0C114200120417FF60061211A50D80E9D1
:01114E00227E
:0C104F007F0AEA24FFFDE434FFFC7E0071
:08105B008E2B8F2C8C2D8D2EA5
:101063007F017E00E4FBEBC3952EE52D6480F874CD
:0E1073008098500AAC2BAD2C1204440B80E880
:01108100224C
:0411AF008A288B29D6
:1011B3001212B5AA2AEAD39400400D12104FAC289C
:0811C300AD291211911A80ED13
:0111CB002201
:100F6B001212B5C3EA64809480400B7F2B1211A53B
:100F7B008A348B35800E7F2D1211A5C3E49BF5357A
:100F8B00E49AF534AA33EAD39400400D12104FAC17
:090F9B0034AD351211911A80EDFC
:010FA400222A
:040FDE008A388B3989
:100FE2001212B5AA3AEAD3940040297F1012105186
:100FF200AC38AD39CFCDCFCECCCE120456EF540F94
:10100200FEC3940AEE5004243080022437FF1211EA
:04101200A51A80D1CA
:0110160022B7
:041017008A3D8B3E45
:10101B001212B5AA3FEAD394004028EA24FFFDE45C
:10102B0034FFFC7F027E0012105BAC3DAD3ECFCD9A
:10103B00CFCECCCE120456EF54012430FF1211A5A3
:03104B001A80D236
:01104E00227F
:101205007BFF7A1279F17D017F0112112C7BFF7A28
:0A1215001279F17D017F0202112C15
:05138200C2B5C2B62255
:101302008F108D118B12852913852A14852B152296
:020E9000A907B0
:100E9200D2B5E4FB7E007401A803088005C333CEFB
:100EA20033CED8F9FFE9F582EF558224FF92B4D20E
:100EB200B6C2B60BBB08DDE4FB7E007401A80308D2
:100EC2008005C333CE33CED8F9FFEDF582EF5582DC
:0E0ED20024FF92B4D2B6C2B60BBB08DDC2B587
:010EE00022EF
:020EE100AD075B
:100EE300E4F9430501D2B5FB7E007401A803088031
:100EF30005C333CE33CED8F9FFEDF582EF55822407
:100F0300FF92B4C2B6D2B60BBB08DDE4FBD2B6C2C5
:100F1300B630B40DA8037401088002C333D8FC4271
:0B0F2300010BBB08E8C2B5C2B4AF016F
:010F2E0022A0
:100A5A00E4FD7F8E120E90E51075F00A1203F5C4BC
:100A6A0054F0FFE51075F00A1203F5AEF0EF2EFD13
:100A7A007F8C120E90E51175F00A1203F5C454F03A
:100A8A00FFE51175F00A1203F5AEF0EF2EFD7F882F
:100A9A00120E90E51275F00A1203F5C454F0FFE540
:100AAA001275F00A1203F5AEF0EF2EFD7F86120ED4
:100ABA0090E51375F00A1203F5C454F0FFE51375B7
:100ACA00F00A1203F5AEF0EF2EFD7F84120E90E5C8
:100ADA001475F00A1203F5C454F0FFE51475F00A10
:100AEA001203F5AEF0EF2EFD7F82120E90E515751A
:100AFA00F00A1203F5C454F0FFE51575F00A120363
:100B0A00F5AEF0EF2EFD7F80120E907D807F8E0273
:020B1A000E903B
:100CF2007F8C120EE1EFC4540F75F00AA4FEEF547C
:100D02000F2EF5107F88120EE1EFC4540F75F00A12
:100D1200A4FEEF540F2EF5117F86120EE1EFC4549C
:100D22000F75F00AA4FEEF540F2EF5127F84120EF7
:100D3200E1EFC4540F75F00AA4FEEF540F2EF51321
:100D42007F82120EE1EFC4540F75F00AA4FEEF5435
:100D52000F2EF5147F80120EE1EFC4540F75F00AC6
:080D6200A4FEEF540F2EF5155D
:010D6A002266
:10117100E4FDFCC3ED9FEC9E5015E4FBFA0BBB00B4
:0F118100010ABA01F8BB70F50DBD00010C80E446
:01119000223C
:100DD400E4F52620B0137F14FE12117130B0FD7FAC
:100DE400147E0012117175260220B1147F147E0046
:100DF40012117130B1FD7F147E001211717526013C
:100E040020B2147F147E0012117130B2FD7F147E63
:100E14000012117175260320B3147F147E00121181
:100E24007130B3FD7F147E00121171752604AF2654
:010E3400229B
:10129E005389F0438901758A18758CFCC28DD28CE6
:0712AE00D2A9D2AFC2B922A0
:091373003A002020202020200077
:05137C00007FF7DFFE19
:011381002249
:04114F00AD07AC0636
:10115300E4FBFAED25E0FFEC33FEC3EB9FEA9E5080
:0D1163000CB29512137C0BBB00010A80E654
:01117000225C
:051387008F0A8D0B220E
:10108200E50AFB3395E0FA752A027D0C7F02121104
:10109200AF7BFF7A1379737D0E7F0212112CE50B61
:0F10A200FB3395E0FA752A027D0F7F020211AF32
:0D132F007BFF7A1379757D0C7F0202112C73
:0E132100E513B50A07E514B50B02D322C3226B
:1011E90054204500202020202020006C696D69745E
:0C11F90020002020546F4300546F43007E
:06000300011D1E011C1985
:1008A00012133C7BFF7A1179E97D0C7F0112112C28
:1008B000852125852024851F23851E221210DC8F8B
:1008C000218E208D1F8C1EAB21AA20A91FA81EAF30
:1008D00025AE24AD23AC2212001112037412134969
:1008E000AC06AD07EC12033B8F1B8E1A8D198C18CA
:1008F000E4FFFEFD7C40AB1BAA1AA919A81812023E
:10090000AC4003020989E4FFFEFDFCAB21AA20A94B
:100910001FA81E1202AC501E7B2D7D0B7F021213EE
:100920005FAF21AE20AD1FAC1E1203258F218E209C
:100930008D1F8C1E80097B2B7D0B7F0212135FAFF6
:1009400021AE20AD1FAC1E120374AB07AA06752A98
:10095000027D0C7F021211AF7B2E7D0E7F021213DF
:100960005FE4FFFE7DC87C42AB21AA20A91FA81E20
:10097000120106120374E47B64FAF9F81204E775B5
:0A0980002A027D0F7F021211AF2240
:0A13690012133C7FF47E01021171A3
:10121F007BFF7A1179ED7D0A7F0112112C7BFF7A0A
:0A122F001179ED7D0A7F0202112CF7
:03138C00051D221A
:03138F00151D2207
:03139200051C2215
:03139500151C2202
:100E3500AB21AA20A91FA81EAF25AE24AD23AC2245
:100E4500120011120374121349AC06AD07EC12031C
:100E55003B8F1B8E1A8D198C18E4FFFEFD7C40AB71
:100E65001BAA1AA919A8181202AC501DAF21AE2051
:100E7500AD1FAC1E120374EF600FC3951D5006EF36
:0B0E8500C3951C5002D322C322C322DD
:1010B1007BFF7A1179F47D0B7F0112112CE51CFB6A
:1010C1007A00752A027D0B7F021211AFE51DFB7AB2
:0B10D10000752A027D0E7F020211AFA5
:101239007BFF7A1179ED7D0B7F0112112C7BFF7AEF
:0A1249001179ED7D0B7F0202112CDC
:100F2F00121398EFFB7A00752A027D0C7F011211C4
:100F3F00AF7BFF7A1179FB7D0E7F0112112C1213FB
:100F4F009BEFFB7A00752A027D0C7F021211AF7B9B
:0C0F5F00FF7A1279017D0E7F0202112C36
:03139800AF1D2264
:03139B00AF1C2262
:0D133C001212537FCC12126D7F4402126D0D
:1010DC001212537FCC12126D7FBE12126D1211CCF4
:1010EC008F261211CCEFFEE526FFFDAC06EC1203A9
:0B10FC003BE4FBFA7980784102020F10
:10125300D2B3C2B37FF7DFFED2B37F20DFFEA2B3E8
:09126300E433FE7FF7DFFEAF0665
:01126C00225F
:1012DF00C2B37E04DEFEEF24FF92B37E18DEFED291
:0112EF00B34B
:0112F00022DB
:10128600C2B37F02DFFED2B37F02DFFEA2B3E43336
:07129600FE7F18DFFEAF062A
:01129D00222E
:02126D00AD07CB
:10126F00E4FCA8047401088002C333D8FC5DFF12AC
:06127F0012DF0CBC08ECBC
:011285002246
:1011CC00E4FDFC121286EF600DA804740108800285
:0C11DC00C333D8FC42050CBC08E9AF0589
:0111E80022E4
:10000E000203E0E86480F8E933E83360110460F03D
:10001E00ED33EC337009E8FCE9FDEAFEEBFF220458
:10002E0060DED3EB9FEA9EE99DE8C2E78CF0C2F753
:10003E0095F0400CE8CCF8E9CDF9EACEFAEBCFFB1F
:10004E001203AB85D0F05804700320D5B3E80470CA
:10005E00075002B2D50203EA92D5EC0460F7E4CC65
:10006E00C0E0C398F8603B94186008400DD0E0FBE8
:10007E000203C2E4FBFAC9FC8028E830E406E4C9B6
:10008E00FBE4CAFCE830E305E4C9CACBFCE854073C
:10009E006010F8C3E913F9EA13FAEB13FBEC13FC47
:1000AE00D8F130F52FC3E49CFCEF9BFFEE9AFEEDEA
:1000BE0099FDD0E0FBEF4E4D4C701222DB03020394
:1000CE00E7EC2CFCEF33FFEE33FEED33FDED30E7C6
:1000DE00EB0203C2EF2BFFEE3AFEED39FDD0E0FB53
:1000EE0050130BBB00030203EAED13FDEE13FEEFFC
:0800FE0013FFEC13FC0203C226
:10010600EC4D6011E8497017ED33EC3304600DE4F3
:10011600FCFFFEFD22E933E8330470F80203E01227
:1001260003AB58046009E4CC248150062850090228
:1001360003EA2840030203E7C0E0EB4A7044B980B3
:1001460006D0E0FB0203D6EF4E701CBD8008EBFF25
:10015600EAFEE9FD80EBE98DF0A4FEE5F00201EF91
:10016600E9CDF9EAFEEBFFEF89F0A4FCE5F0CE89D4
:10017600F0A42EFFE435F0CD89F0A42DFEE435F091
:100186008067EF4E7005BD80D780C3EF8BF0A4ACBF
:10019600F0EE8BF0A42CFCE435F0F8EF8AF0A42CFA
:1001A600E5F038FCE433CB8DF0A42CFCE5F03BF80D
:1001B600EE8AF0A42CFCE5F038F8E433CF89F0A4FD
:1001C6002CFCE5F038CF3400CE89F0A42FFFE5F003
:1001D6003EFEE433C98DF0A42EFEE5F039CD8AF05B
:1001E600A42FFFE5F03EFEE43DFD33D0E0FB5007D3
:1001F6000BBB000F0203EAEC2CFCEF33FFEE33FEE1
:06020600ED33FD0203C20E
:10020C000203EAEC5D046005E8590470030203E0A4
:10021C001203AB580460F6EC4860F2EC7004FDFE7F
:10022C00FF22C860DB2481C85009C39860025006C5
:10023C000203E79850CAF582E9294B4A7005AB8254
:10024C000203D675F0007C1A7880C3EF9BEE9AED12
:10025C0099400DC3EF9BFFEE9AFEED99FDE842F03D
:10026C00DC23ACF0D0E0FFD0E0FED0E0FDAB822090
:10027C00E7101BEB60BAEC2CFCEF33FFEE33FEED1A
:10028C0033FD0203C2E803F830E705C0F075F00057
:10029C00EF2FFFEE33FEED33FD40B830E7C280AAFE
:1002AC0074F8CC6480CCC86480C8F58204604FC3F9
:1002BC00EB9FF5F0EA9E42F0E99D42F0E89C45F098
:1002CC00603C501DE5825FFFE582D313CB5BCBF422
:1002DC002B5582FB50280ABA002409B9002008804B
:1002EC001DE5825BFBE582D313CF5FCFF4C3132FE5
:1002FC005582FF50090EBE00050DBD00010CC3EB6D
:10030C009FF5F0EA9E42F0E99D42F0E89C45F060D2
:09031C0007CC4820E701B3EC22F4
:10032500ED33EC33600A047003BD8004ECB2E7FCE6
:0103350022A5
:1003360075F020800E75F010800575F0087D007E42
:10034600007F003392D530D503120579EC33401087
:10035600EF33FFEE33FEED33FDEC33FCD5F0ED224B
:0E036600E5F0247EA2D513CC92E7CDCEFF2287
:10037400EDD2E7CD33EC3392D524814006E4FFFE81
:10038400FDFC22FCE4CFCECDCC24E0501174FF80E0
:10039400EDC3CC13CCCD13CDCE13CECF13CF04707D
:0703A400F030D5DE020579FF
:1003AB00E9D2E7C933E833F892D5EDD2E7CD33EC98
:0703BB0033FC5002B2D52211
:1003C200EC30E7100FBF000C0EBE00080DBD00049C
:1003D2000BEB6014A2D5EB13FCED92E7FD2274FF48
:1003E200FCFDFEFF22E480F8A2D574FF13FC7D80A1
:0303F200E480EFB5
:100C720002098AE493A3F8E493A34003F68001F205
:100C820008DFF48029E493A3F85407240CC8C33383
:100C9200C4540F4420C8834004F456800146F6DF52
:100CA200E4800B0102040810204080900003E47EDF
:100CB200019360BCA3FF543F30E509541FFEE49347
:100CC200A360010ECF54C025E060A840B8E493A30E
:100CD200FAE493A3F8E493A3C8C582C8CAC583CA39
:100CE200F0A3C8C582C8CAC583CADFE9DEE780BEF1
:0100090000F6
:1003F500C2D530F707B2D563F0FF05F030E70CB290
:10040500D5F4048463F0FF05F080018430D502F44F
:020415000422BF
:10041700BB010CE58229F582E5833AF583E022509A
:1004270006E92582F8E622BBFE06E92582F8E222E4
:0D043700E58229F582E5833AF583E49322FE
:10044400EF8DF0A4A8F0CF8CF0A428CE8DF0A42ECC
:02045400FE2286
:10045600BC000BBE0029EF8DF084FFADF022E4CC8A
:10046600F875F008EF2FFFEE33FEEC33FCEE9DEC53
:10047600984005FCEE9DFE0FD5F0E9E4CEFD22ED99
:10048600F8F5F0EE8420D21CFEADF075F008EF2FE3
:10049600FFED33FD4007985006D5F0F222C398FDD4
:0504A6000FD5F0EA2271
:1004AB0075F008758200EF2FFFEE33FECD33CDCC08
:1004BB0033CCC58233C5829BED9AEC99E58298408B
:1004CB000CF582EE9BFEED9AFDEC99FC0FD5F0D668
:1004DB00E4CEFBE4CDFAE4CCF9A88222B800C1B992
:1004EB000059BA002DEC8BF084CFCECDFCE5F0CBD0
:1004FB00F97818EF2FFFEE33FEED33FDEC33FCEB09
:10050B0033FB10D703994004EB99FB0FD8E5E4F9C3
:10051B00FA227818EF2FFFEE33FEED33FDEC33FCB0
:10052B00C933C910D7059BE99A4007EC9BFCE99AA4
:10053B00F90FD8E0E4C9FAE4CCFB2275F010EF2FE9
:10054B00FFEE33FEED33FDCC33CCC833C810D707E9
:10055B009BEC9AE899400AED9BFDEC9AFCE899F824
:0E056B000FD5F0DAE4CDFBE4CCFAE4C8F922B7
:0E057900C3E49FFFE49EFEE49DFDE49CFC2293
:0C134900EE30E707C3E49FFFE49EFE22A5
:00000001FF
